:10000000021305022003FFFFFFFFFF02200BFFFF8B
:10001000FFFFFF020E67FFFFFFFFFF02201BFFFF36
:10002000FFFFFF022023FFFFFFFFFF02202BFFFF48
:10003000FFFFFF022033FFFFFFFFFF020EAAFFFFBB
:10004000FFFFFF022043FFFFFFFFFF02204BFFFFE8
:10005000FFFFFF022053FFFFFFFFFF02205BFFFFB8
:10006000FFFFFF022063FFFFFFFFFF02206BFFFF88
:10007000FFFFFF022073FFFFFFFFFF02207BFFFF58
:10008000FFFFFF022083FFFFFFFFFF02208BFFFF28
:10009000FFFF70DFFFFF040000000002000000C847
:1000A0000300030369A5020269A501000000000026
:1000B00004003273000074F812104C900393E06057
:1000C0001590030274FEF0900304744DF0A37405C0
:1000D000F07A0112068C7F0102116974F712104C3C
:1000E00074FF1212717E00801F851882851983E0CB
:1000F00064FE70069003877401F085188285198369
:10010000E0F8900384E068F07C017D00AA18AB1948
:10011000120E228B09EA450970030201F385188249
:10012000851983E064EF70027E07E0C0E0900387EA
:10013000E0FA900385E0F8EA28F8E43400F9740264
:1001400028F582740339F583D0E0F0900387E060EE
:100150009814600E14602C14603C14605214606893
:100160008098900384E4F0851882851983E09003D9
:1001700086F0C394809003874004E40200F974027F
:100180000200F9851882851983E0900382F09003BC
:100190008774030200F9851882851983E090038330
:1001A000F0900386E0601990038774040200F990D0
:1001B0000385E004F0F8900386E06860030200FA2B
:1001C00090038774050200F9900385E4F09003879B
:1001D000F0900384E0F8851882851983E068600355
:1001E0000200FA900382E0644D60030200FA1203F9
:1001F000288002EEF9740112123D7F020211697427
:10020000F712104C74FB121271EAFEEBFF75080432
:1002100075090078081212D574021212EE7A907BDA
:10022000007904120ECB740212123D12067E1213D4
:100230003FE0687003A3E069701285188285198316
:10024000E0F47003A3E0F4600302030874041212E4
:10025000E61206E48A088B09A808A9097402121399
:100260003FE8F0A3E9F0740412133FE0600879015D
:100270001200B6020321851882851983E068700395
:10028000A3E0697076851882851983E0F47003A372
:10029000E0F47019740212133F7410F0A37420F08C
:1002A0008518828519837410F0A37420F0750801F5
:1002B00075090078081212D574021212EE7A247BA6
:1002C00008120F4F740212123D75080478081212BA
:1002D000D574021212EE7A907B007904120ECB7460
:1002E0000212123D12067E12133FE0687003A3E073
:1002F000697004790280067904800279031200B6DD
:100300008E828F83741E80058E828F83E4F01206A6
:100310007E12133FE0687003A3E0697004790180E6
:1003200002790074050201F774E912104C74F81296
:100330001271900307E0FA900306E0F9FEEAFCE48C
:10034000CCFDEE2CED3408FF751001750F00750E15
:10035000068E088F097402780812129CC39508FC57
:10036000E49509FD74022CF51474033DF515E514AC
:100370002497F516E5153420F517EE2410F508E45A
:100380003FF509EEF50CEF5401F50D8E128F137445
:100390000978121212F685120A900383E01460574E
:1003A00014700302046F1470030204E61460102436
:1003B000FE70030205A11470030206510206617566
:1003C0000E03794E120C619003071206747402F04A
:1003D000A374401206727408120672F0A3F0741827
:1003E000C3940704F510AA10A90F12068CA90E7465
:1003F0000812123D02083E750E04794E120C61EE91
:10040000450D7005A90A120FB5C3EE9425EF9408A7
:10041000503FC3E5089424E50994084034E51424CA
:1004200096F8E5153420F988828983E0701E8516D8
:1004300082851783E070159003887401F0888289A3
:100440008374A5F08516828517838004900388E461
:10045000F075081075090078081212D57C087D0324
:10046000EEFAEFFB120F4F740212123D0203E67513
:100470000E05C3E50A947995E04006750F01020365
:10048000E675104075110078101212D57C097D03B5
:100490007402780C12129CAA0CAB0DA90A120ECB96
:1004A000740212123D900307E0A3F0900306E0A34C
:1004B000F0751043C3EE9425EF940840030203E661
:1004C000C3E5089424E509940850030203E6900369
:1004D00088E070030203E6A816A91788828983E4DE
:1004E000F0A3F00203E675080475090078081212FB
:1004F000D574021212EE7A907B007904120ECB743E
:100500000212123D740212133FE0F8A3E0F98518BD
:1005100082851983E0687003A3E0698518828519D4
:1005200083700BE0F47003A3E0F470578009E0F4EB
:100530007003A3E0F4700D8518828519837410F0A0
:10054000A37420F012067E12133FE8F0A3E9F075C1
:10055000080178081212D574021212EE7A247B0870
:10056000120F4F740212123D75080478081212D54A
:1005700074021212EE7A907B007904120ECB740290
:1005800012123D12067E12133FE0687003A3E06969
:100590007006750E010203E6750E02750F07020361
:1005A000E6900391E06007640260030203E6EAFF5D
:1005B0007A01790012068CE060030206458003127E
:1005C0000D22120D2CE970F7740412133F12066607
:1005D000740412133F780812132385080C85090D43
:1005E000850A0E850B0F9005A2780C1212C27404B6
:1005F00012133F780C121314E5084509450A450B00
:1006000070CE8EC2E5C554E04FF5C5740412133F99
:10061000120666740412133F780812132385080C1F
:1006200085090D850A0E850B0F9005A2780C121214
:10063000C2740412133F780C121314E508450945DF
:100640000A450B70CE7A01790012068C79080203F4
:10065000EFE9900393F070030203E6750E090203BD
:10066000E679060203EFE4F0A37426F0A3E4F0A316
:10067000F022F0A3E4F0A3F0A3F0A3F0A3228518E6
:1006800082851983E0F8A3E0F974022274F812104D
:100690004CEAFE900305E0D2E7F0E9A3F0EE900308
:1006A00003F08E0874042AFE7C028004E062080CC9
:1006B000ECFA3395E0FB74022AF58274033BF58370
:1006C000EEF8C3EA98EB9400A2D265D03340DDE5A2
:1006D00008F074012A0C3395E0FD7A027B03120EB8
:1006E000520200D674E912104C7582007583FE1216
:1006F00012048A168B177514007515008A828B8375
:10070000E4F0900391E07006D2AAD2AF80046402B4
:10071000700579001200B6750C00750D20750E007D
:10072000750F00900391E0600464027015120D22B1
:100730001200DBE9F87409686003020814790012FA
:1007400000B675080075090278081212D5740212F5
:1007500012EE850C08850D09AA08E5095407FB85EA
:100760000E0A850F0B740B7808121258A908120E86
:10077000CB740212123D7E007F009005AAC0828ECB
:1007800010EFF5113395E0F512F513850C08850D82
:1007900009850E0A850F0B780879101212AF9005A3
:1007A000A678081212C2758305D08278081211E566
:1007B000501D851882851983E5822EF582E5833FD9
:1007C000F583E0F9AA14AB151208438A148B150EB1
:1007D000EE70010FC3EF940240A09005AE780C12AA
:1007E00012C29005B2780C1211E54003020723797A
:1007F00000AA14AB1512084379001208438B159018
:100800000391E07004C2AFC2AAEA451570277AA529
:100810007BA58021E870030207427406687003021A
:1008200007427407687003020742851682851783A2
:100830007401F080BA7582007583021212047F1071
:10084000021169C008C0097C088A088B09740F78F6
:10085000081212F6E508F8EA25E0FAEB33FBE9A204
:10086000E7500474014AFAE8A2E0500874216AFAD9
:1008700074106BFBE9C333F91CEC70CDD009D008C0
:100880002274F812104C78007900802274942EF5AE
:1008900082E43403F583E08A828B83F0900414129F
:1008A0000A014005900414E4F008E870010990047E
:1008B00014E0FEA3E06E6007C3E89CE99D40CDE82C
:1008C000FAE9FB7F0102116974F712104C90049849
:1008D000E0F509A3E0F508F8E509C398F895E0F913
:1008E000E508C39509E8500B120AE3701178007906
:1008F00000801B247F500109C39CE99D50EF7A00C2
:100900007B008041E004F0D2E908E8700109C3E807
:100910009CE99D502C8A828B83E0C0E0900499E092
:10092000FE74182EF582E43404F583D0E0120AD365
:1009300090049AE4F0900499E0C3947F40C6E48068
:10094000C5E8FAE9FB7F02021169C082C083C2E9EF
:10095000900498E0F8A3E0686017741828F582E422
:100960003404F583E0F5C1900498120AFA4002E4D9
:10097000F0020D4074F812104C7800790090051DBB
:10098000E07055A3E0705175F900C28FC284A28354
:1009900040FCA28F4004A28350F8AEF9C28FA2831C
:1009A0005004D2848032EEC0E0E0FE1209F6D0E0BE
:1009B000F090051E120AFA40D9E4F080D51209F62B
:1009C000E08A828B83F090051D120A014005900594
:1009D0001DE4F008E870010990051DE0FEA3E06E3B
:1009E0006007C3E89CE99D40D4E8497006E4F090B4
:1009F000051DF00208BF749D2EF582E43404F583D2
:100A000022E004120AD7C394802274F812104C908A
:100A100005A0E0FEF890059FE0FFEEC39FE0500DBB
:100A2000C398F895E0F9120AE270188012C398F89A
:100A300095E0F9E8247F500109C39CE99D4004EC4E
:100A40004D70077A007B00020AD08A828B83E0F522
:100A5000F9A3AA82AB83780179008008E004F0084A
:100A6000E8700109C3E89CE99D50278A828B83E0E6
:100A7000C0E09005A0E0FE741F2EF582E43405F579
:100A800083D0E0120AD39005A0E0C3947F40CDE468
:100A900080CCC28FA28340FCC284A28F4004A28378
:100AA00050F890059F120AEDE0F5F9C28F90059F6E
:100AB000E0FAA3E06A90059F7005120AED80051226
:100AC0000AFA4002E4F0A28350D0D284E8FAE9FBAB
:100AD0000208C3120AD722F08A828B83A3AA82ABB0
:100AE0008322E824FF18E934FFF9E84922E0FA7488
:100AF0001F2AF582E43405F58322E004F0C39480D4
:100B00002274FB121271C2009005CA7808121323D6
:100B10009005CA7401F0A3F0A37469F0A374A5F062
:100B20009005B678081212877004D20080159005DF
:100B3000BA78081212876008E59D54186410700393
:100B4000022000120C87A2005003020C04AA18AB6A
:100B5000191201FFE97003020C04851882851983BC
:100B6000E0C3943C500CE0F8743CC398FA95E0FB69
:100B700080047A007B00120D45E97003020C04909A
:100B80000391E06401700C75F800C2AB539AF7D280
:100B9000EA805E79071200B68003120D22120D2C36
:100BA000E970F7740112133FE4F0A37426F0A3E494
:100BB000F0A3F0740112133F780812132385080C78
:100BC00085090D850A0E850B0F9005A2780C12126F
:100BD000C2740112133F780C121314E5084509453D
:100BE0000A450B70CE758600C2AAC28B539AFBC20F
:100BF000E990000174CDF0022000C2AF75C9AB7559
:100C0000C95B80FE750800750900750A00750B0048
:100C1000900391E0701BD2AAD2AF79051200B6E022
:100C20007003120D221200DBE9F874096870098064
:100C3000E9794E120C6180ED74016870E2E0701782
:100C4000120D229005BE78081212C29005C27808D3
:100C50001211E550EBC2AAC2AF75C9AB75C95B8072
:100C6000FEC082C08378109005A1E0C3995015752D
:100C7000B60FE5B4A2E750FAE5BBC39940F118E816
:100C800070EDE9F0020D40C082C08353BEFBE59DCC
:100C9000A2E650FA0078F8790100120AE270FA75BB
:100CA000C6807480659E70FA43BE049062707408BA
:100CB000F0794A120C6190000174F5F07403F5D5D7
:100CC00075D489A2A0E433900391F0A2E05029D218
:100CD0008453F3F753F3EF53FDF743FD10538FF7AE
:100CE00053F7DF43FC2043F10253F5DF75F820434F
:100CF000F4F0D2FED2AB802853FF3F85FFFF53F1C3
:100D0000FE43F30C53F2F375868075C48090049B08
:100D1000E4F0A3F075C2D875C50B75C402438640D4
:100D2000801E800312094AA2E940F922C082C083D2
:100D3000900498E0F8A3E0686004790180027900EB
:100D4000D083D0822274F112104C74FF1212717E83
:100D500000900391E06401706CC28490039274016E
:100D6000F07508388E098E0A8E0B7C017D00AA185A
:100D7000AB19120E228B0DEA450D6018851882857D
:100D80001983E06410602DE064EF70088E088E090E
:100D90008E0A8E0B85080C85090D850A0E850B0FB2
:100DA0009005A278081212C2E50C450D450E450FBC
:100DB00070347E01900391E064017056D2849003F8
:100DC00092E4F08051D2AAD2AF8A088B09E4F50AE6
:100DD000F50B9005C6780C1213237808790C120FC6
:100DE000CC79061200B6900391E06003020D6A12FE
:100DF0000D221200DBE9F874096870077906120009
:100E0000B680917407686084E8608974066870A48D
:100E10008082C2AFC2AAEEF9740112123D7F0802AD
:100E20001169C082C083900391E07005120881802F
:100E30001E900392E06015A28F500BE5F98A828B19
:100E400083F07A0180027A007B0080031209740229
:100E50000D40C082C083900391E070051208C880E5
:100E600003120A0A020D40C0E074F21210B29000A0
:100E700001E064CD7005122013802AE064F570242F
:100E8000E5C1C28BC0E0900415E0F8749428F582A7
:100E9000E43403F583D0E0F0900415120AFA40051B
:100EA000E4F08001007F01021111C0E074F2121021
:100EB000B2900001E064CD700512203B800BE0642D
:100EC000F5700512094A80010080DA74F612104CA0
:100ED000890A740F550AF508750900740B78081211
:100EE000129CEA2400F8EB3480F9E82400E9350983
:100EF000F985C709A2AFE433F508C2AFE50AC454C7
:100F00000FFAE5C754F84AF5C7740A12133FE0FA1E
:100F1000A3E0FB801C88828983E08C828D83F0882B
:100F2000828983A3A882A9838C828D83A3AC82AD9E
:100F300083EAFEEBFFEE24FF1AEF34FFFBEE4F7067
:100F4000D48509C7E508A2E092AF7F030211697456
:100F5000F712104CED900389F0ECA3F0A37462F04B
:100F6000A37473F0A3E0541FF0740912133FE0F56B
:100F700008A3E0F509E508333354FC90038EF074C0
:100F80000678081212F6E50890038DF090038F742E
:100F900012F0A37442F075D1FE75D601EA90627129
:100FA000F0EBA3F0906270E0D2E1F0E0A2E740FB4A
:100FB0007F02021169C082C083E9C333906272F07C
:100FC000906270E0D2E0F0D083D08222080808EA74
:100FD000C0E0EBC0E086F0E7A4FA180986F0E7A4C9
:100FE0002AFA180986F0E7A42AFA180986F0E7A475
:100FF0002AFA1986F0E7A4FBE5F02AFA190886F028
:10100000E7A42BFBE5F03AFA190886F0E7A42BFBDE
:10101000E5F03AFA18180986F0E7A4C5F02BFBE4CE
:101020003AFA1908E7C5F0C6A426F6E5F03BFBE45A
:101030003AFA1886F0E7A4F6E5F00826F6E43B084D
:10104000F6E43A08F6D0E0FBD0E0FA222518C58293
:10105000C0E0E51934FFC583C0E0E518C3958224DC
:10106000F910AF0885831985821880088583198552
:101070008218D2AFCEF0A3E520F0A37808E608F0FE
:10108000A3DEFAEFF0A3E58124FBF8E608F0A3E67F
:1010900008F0A30808E608F0A3E608F0A3158115F8
:1010A00081D0E0FED0E0F815811581E8C0E0EEC007
:1010B000E022C0D02518C582C0E0E51934FFC58301
:1010C000C0E0E518C3958224F310AF088583198525
:1010D00082188008858319858218D2AFC8F0A3E9E9
:1010E000F0A3EAF0A3EBF0A37908E709F0A3D8FA9C
:1010F000ECF0A3EDF0A3EEF0A3EFF0A3D0E0F0A3AB
:10110000D0E0F0A3D0E0F0A3E520F0A3E5F0F0A359
:1011100022851983851882E0C0E0A3E0F9A3E0FAF4
:10112000A3E0FBA37808E0F608A3DFFAE0FCA3E065
:10113000FDA3E0FEA3E0FFA3E0C0E0A3E0C0E0A3C6
:10114000E0F5D0A3E0F520A3E0A3F5F010AF08850B
:1011500083198582188008858319858218D2AFD0BB
:1011600082D083D0E0F8D0E032851983851882E000
:10117000A3FEE0A3F5207808E0A3F608DFFAE0A3D9
:10118000FFE0A3C0E0E0A3C0E0E0A3C0E0E0A3C0B4
:10119000E010AF088582188583198008858218853C
:1011A0008319D2AFD083D08222E490030278A17950
:1011B000038002F0A3D8FCD9FA7AA27B0590008EB6
:1011C000782979018015E493A3AD82AE838A828B5E
:1011D00083F0A3AA82AB838D828E83D8E9D9E712EC
:1011E0000B01121349C008C3E096F50808A3E09666
:1011F000420808A3E096420808A3E096450870015B
:10120000D3D00822C5822518C582C583351910AFF1
:1012100007F5198582188007F519858218D2AFC5A0
:1012200083222518F58210AF08F518400C15198097
:1012300008F51840021519D2AF8519832200C0D0D5
:10124000251810AF08F518500C05198008F518502E
:10125000020519D2AFD0D0226016080808C6C31301
:10126000C618C613C618C613C618C613C6D5E0EAF4
:1012700022251810AF08F518400C15198008F5182C
:1012800040021519D2AF22E066701008A3E0667024
:101290000A08A3E066700408A3E0662270042260D6
:1012A0000D18C6C333C608C633C6D5E0F41822E607
:1012B00027F60809E637F60809E637F60809E6379B
:1012C000F622E026F608A3E036F608A3E036F60894
:1012D000A3E036F62274028000C0E0F40412122269
:1012E000D0E0121332222518FAE43519FB22251812
:1012F000FCE43519FD22600C08C6C313C618C613DA
:10130000C6D5E0F42275D00075813F7518027519B5
:10131000030211A9E6F008A3E6F008A3E6F008A38B
:10132000E6F022E0F608A3E0F608A3E0F608A3E062
:10133000F622CAC0E0E6F0A308DAFAD0E0FA2225E5
:1013400018F582E43519F5832200000080FBFFFFC9
:10135000FFFFFFFFFFFFFFFFFFFFFFFFFFFFFFFF9D
:10136000FFFFFFFFFFFFFFFFFFFFFFFFFFFFFFFF8D
:10137000FFFFFFFFFFFFFFFFFFFFFFFFFFFFFFFF7D
:10138000FFFFFFFFFFFFFFFFFFFFFFFFFFFFFFFF6D
:101FF000FFFFFFFFFFFFCA0509433886000000000E
:10200000022C5F022214FFFFFFFFFFFFFFFFFFFF15
:10201000FFFFFFFFFFFFFFFFFFFFFFFFFFFFFFFFD0
:10202000FFFFFFFFFFFFFFFFFFFFFF022A59FFFF38
:10203000FFFFFFFFFFFFFFFFFFFFFFFFFFFFFFFFB0
:10204000FFFFFF02275DFFFFFFFFFFFFFFFFFFFF17
:10205000FFFFFF022154FFFFFFFFFFFFFFFFFFFF16
:10206000FFFFFFFFFFFFFFFFFFFFFF022908FFFF4A
:10207000FFFFFFFFFFFFFFFFFFFFFFFFFFFFFFFF70
:10208000FFFFFF0221A8FFFFFFFFFFFFFFFFFFFF92
:10209000102010200100F0FF0700080000FFFF00E3
:1020A00000030400000F0100000300019651180016
:1020B000020000B631000000001A313A328631FECB
:1020C000310000443100000000000000000000501A
:1020D00031000000000000000000005C3106FFFF3E
:1020E000FF010400008C17000000E8030000FFFF60
:1020F0005C18018813000003E8030000640064001A
:10210000B801A0BB0D00A0BB0D0002020207040134
:102110000101051E02051E020A0A01010108090843
:102120000103B80B02803E0102FEFFE8030A05002E
:1021300001FFFF0A011401E00105030101FF0F1077
:10214000FEFF054E000000003B4D00000000FF00B8
:102150000000FF00C0E074F2122527A2AFE433F5BF
:1021600008D2AFAFA7AEA1EE5F54106006122E9E4C
:1021700075A1EFEE5F54086008122EA475A1F780D8
:1021800023EEA2E092F0EFA2E082F0501790619867
:10219000E0F8900669E0C398A2D265D0335002E817
:1021A000F075A1FEE5088063C0E074F2122527A255
:1021B000AFE433FED2AF9061A4E0F8759B00E591E7
:1021C00058540860087591F7122EF28023E5915853
:1021D000541060087591EF122EF88014E591A2E07A
:1021E00092F0E8A2E082F05007E0C2E0F012304E38
:1021F0009061A3E0F8E5E9585404600E12302475AC
:10220000E9FB906193E0A2E640F2EEA2E092AF7F9C
:1022100001022586C0E074F2122527A2AFE433FE46
:10222000D2AF9061A5E0F8E5BF585404600675BFD1
:10223000FB12306680D4C3E498F8E499F91222774F
:102240008026C3E49AFAE49BFBE920E7E9122277AF
:10225000E498F8E499F922C3E498F8E499F9122291
:1022600077E498F8E499F9C3E49AFAE49BFB22EB4B
:1022700020E7CFE920E7E0B90010BB0008E88AF0CA
:1022800084F8AAF022E4FBC8FA22EB70227B10C883
:1022900033C8C933C9335007C39AC3DBF280069AE7
:1022A00050012ADBEAC833F4C8C933F4C9FA2275ED
:1022B000F008E4C833C8C933C933C99AC99B50046C
:1022C000C92AC93BD5F0ECFBC833F4C8E4C9FA22EB
:1022D00074F51224C174FA122AD275080475090023
:1022E0007808122A2C7404122A9C7AF87B07790346
:1022F000122DA874021229EE9081247808122C8DD8
:102300007402122CE47808122AFD704875080275D0
:1023100009007808122A2C7402122A9C7AF67B078C
:102320007903122DA874021229EE8518828519836B
:10233000E0F47003A3E0F4601B851882851983E044
:10234000F8A3E08882F5837402F0A3F0A37469F027
:10235000A374A5F0C2AF75D69F02000074061229BF
:10236000EE7F040227A0080808EAC0E0EBC0E08680
:10237000F0E7A4FA180986F0E7A42AFA180986F00B
:10238000E7A42AFA180986F0E7A42AFA1986F0E7E2
:10239000A4FBE5F02AFA190886F0E7A42BFBE5F088
:1023A0003AFA190886F0E7A42BFBE5F03AFA181878
:1023B0000986F0E7A4C5F02BFBE43AFA1908E7C553
:1023C000F0C6A426F6E5F03BFBE43AFA1886F0E7FF
:1023D000A4F6E5F00826F6E43B08F6E43A08F6D061
:1023E000E0FBD0E0FA22E4CFC0E0E4CEC0E0E4CDF0
:1023F000C0E0E4CCC0E075F020E626F608E633F64F
:1024000008E633F608E633F6181818EC33FCED331B
:10241000FDEE33FEEF33FFC3EC9709ED9709EE971E
:1024200009EF97191919400FFFEC97FC09ED97FD7B
:1024300009EE97FE191906D5F0BFECF709EDF7097B
:10244000EEF709EFF7191919D0E0FCD0E0FDD0E064
:10245000FED0E0FF222518C582C0E0E51934FFC593
:1024600083C0E0E518C3958224F810AF088583196E
:102470008582188008858319858218D2AFCEF0A393
:10248000E520F0A37808E608F0A3DEFAEFF0A3E574
:102490008124FAF8E608F0A3E608F0A3E608F0A322
:1024A0000808E608F0A3E608F0A315811581D0E03E
:1024B000FED0E0F8158115811581E8C0E0EEC0E09E
:1024C000222518C582C0E0E51934FFC583C0E0E5C8
:1024D00018C3958224F910AF088583198582188066
:1024E00008858319858218D2AFCEF0A3E520F0A32A
:1024F0007808E608F0A3DEFAEFF0A3E58124FBF804
:10250000E608F0A3E608F0A30808E608F0A3E6084A
:10251000F0A315811581D0E0FED0E0F8158115817A
:10252000E8C0E0EEC0E022C0D02518C582C0E0E5DA
:102530001934FFC583C0E0E518C3958224F310AFBA
:10254000088583198582188008858319858218D2A9
:10255000AFC8F0A3E9F0A3EAF0A3EBF0A37908E792
:1025600009F0A3D8FAECF0A3EDF0A3EEF0A3EFF09E
:10257000A3D0E0F0A3D0E0F0A3D0E0F0A3E520F0FA
:10258000A3E5F0F0A322851983851882E0C0E0A3BB
:10259000E0F9A3E0FAA3E0FBA37808E0F608A3DFE4
:1025A000FAE0FCA3E0FDA3E0FEA3E0FFA3E0C0E0AF
:1025B000A3E0C0E0A3E0F5D0A3E0F520A3E0A3F5FD
:1025C000F010AF08858319858218800885831985E6
:1025D0008218D2AFD082D083D0E0F8D0E032122C73
:1025E000D9B9000302261DE4900401786E791A809F
:1025F00002F0A3D8FCD9FA7A6E7B1D90209478C1A2
:1026000079018015E493A3AD82AE838A828B83F037
:10261000A3AA82AB838D828E83D8E9D9E77582879E
:1026200075838774071229D075823675834B7400C1
:102630001229D01E75F0108E1A8F1B85821F85837C
:102640001E851882851983E0CEA3E0CF851F828581
:102650001E83EBC9EAC8EDCBECCAC3E833C8E93343
:10266000C9EA33CAEB33CBC3EA9EF51DEB9FF51CD9
:10267000B35004AB1CAA1DEC33CCED33CDD5F0DA4E
:10268000AE1AAF1B22D083D082ECC0E0EDC0E0E4F4
:1026900093A3FCE493A3FDED4C600D1227E0EC2422
:1026A000FFFCED34FFFD80EFE493A3FCE493A3FD76
:1026B000ED4C600D1228B3EC24FFFCED34FFFD80DF
:1026C000EFD0E0FDD0E0FCE493A3C0E0E493C0E0F1
:1026D00022851983851882E0A3FEE0A3F5207808FF
:1026E000E0A3F608DFFAE0A3FFE0A3C0E0E0A3C0A8
:1026F000E0E0A3C0E0E0A3C0E0E0A3C0E010AF08CA
:102700008582188583198008858218858319D2AF40
:10271000D083D0820229D6D083D082E9C0E0E4936E
:10272000A3C386F0C5F095F0F908E493A386F0C53D
:10273000F095F0700BE493A3C3994005E90480027F
:10274000A3E475F002A42582F582E5F03583F583D4
:10275000D0E0F9E493A3C0E0E493C0E022C0E074C9
:10276000F2122527A2AFE433FED2AFC2C0901A10F6
:10277000E0700BE5D1A2E4501D122E0E8018E5D1B9
:10278000A2E3500675D1F7122DDEE5D1A2E4500682
:1027900075D1EF122DE4EEA2E092AF7F0102258603
:1027A000851983851882E0A3FEE0A3F5207808E070
:1027B000A3F608DFFAE0A3FFE0A3C0E0E0A3C0E0D7
:1027C000E0A3C0E0E0A3C0E010AF088582188583D5
:1027D000198008858218858319D2AFD083D08222D0
:1027E000C0E0C3E49396087401939618400FE493F5
:1027F00066700808740193661870007019A3A3C36B
:10280000E49396087401939618A3A3400DD0E0D0EA
:10281000E0D0E00226C1A3A3A3A3A3A3D0E022D0CB
:1028200083D082C5F0E493A3C5F0C395F0F5F0E43E
:1028300093A3C395F04005E5F0048001E475F00230
:10284000A42582F582E5F03583F583E493A3C0E007
:10285000E493C0E0227404800474028000CCC0E0E1
:10286000EDC0E0E518C39CCCAD1950011D10AF06BA
:102870008C188D1980068C188D19D2AF122952D060
:10288000E0FDD0E0FC2274028000CCC0E0EDC0E0AE
:10289000E518C39CCCAD1950011D10AF068C188DE6
:1028A0001980068C188D19D2AF122930D0E0FDD0D6
:1028B000E0FC22C0E0C0F088F0E493667008087481
:1028C000019366187000A8F0A3A3700BD0F0D0E0BD
:1028D000D0E0D0E00226C1A3A3D0F0D0E022D08384
:1028E000D082CCC0E0E493A360061229921470FA5F
:1028F000E493A36006122ABC1470FAD0E0FCE493BF
:10290000A3C0E0E493C0E022C0E074F21225277572
:102910008900C2C5901A10E0700E7A007B109007F3
:1029200001E0F912336C8003123BFA7F0102258625
:10293000CAC0E0E493A3C582CCC582C583CDC5835C
:10294000F0A3C582CCC582C583CDC583DAE5D0E0CE
:10295000CA22CAC0E0E0A3C582CCC582C583CDC56A
:1029600083F0A3C582CCC582C583CDC583DAE6D00A
:10297000E0CA22C008C3E096F50808A3E096420822
:1029800008A3E096420808A3E09645087001D3D05A
:102990000822C0E0E493A3D39C5010E493A3C39C0B
:1029A000400AD0E0D0E0D0E00228FBA3A3A3D0E00F
:1029B000227009080808226016181818C6C333C602
:1029C00008C633C608C633C608C633C6D5E0EA22F1
:1029D000C09FF59FE473D09F22D083D082C09FE434
:1029E00093C0E0740193C0E0740293F59F2200C08D
:1029F000D0251810AF08F518500C05198008F518E7
:102A000050020519D2AFD0D0222518F58210AF0898
:102A1000F518400C15198008F51840021519D2AFA9
:102A2000851983227404800A74038006740280026C
:102A30007401C0E0F404122A09D0E0122C9C22BBDD
:102A40000102E722C082C08389828A83BB0003E03F
:102A50008002E493D083D08222C0E0C0D0E8C0E0FE
:102A6000A8A8D2AFC2C7E8A2E792AFD0E0F8D0D012
:102A7000D0E0326016080808C6C313C618C613C6CD
:102A800018C613C618C613C6D5E0EA222518F8E4FE
:102A90003519F9222518FAE43519FB222518FCE42A
:102AA0003519FD22C3E0C696F608A3E0C696F608DF
:102AB000A3E0C696F608A3E0C696F622C0E0E4932B
:102AC000A36C7009D0E0D0E0D0E00228FBA3A3D033
:102AD000E022251810AF08F518400C15198008F5EC
:102AE0001840021519D2AF22E76670100809E76690
:102AF000700A0809E76670040809E76622E0667054
:102B00001008A3E066700A08A3E066700408A3E05A
:102B10006622C3E09608A3E09608A3E09608A3E027
:102B200096A2D265D03322C3E096F008A3E096F0D7
:102B300008A3E096F008A3E096F022C3E697F60813
:102B400009E697F60809E697F60809E697F622C31C
:102B5000E49396087401939608740293960874039C
:102B6000939622E627F60809E637F60809E637F6CF
:102B70000809E637F622E026F608A3E036F608A3B1
:102B8000E036F608A3E036F622E493F608740193E3
:102B9000F608740293F608740393F622E647F608E3
:102BA00009E647F60809E647F60809E647F622E689
:102BB00057F60809E657F60809E657F60809E657F2
:102BC000F622E056F608A3E056F608A3E056F6080B
:102BD000A3E056F622E056F008A3E056F008A3E082
:102BE00056F008A3E056F022E026F008A3E036F005
:102BF00008A3E036F008A3E036F022700422600D4E
:102C000018C6C333C608C633C6D5E0F41822E4C3D9
:102C100096F608E496F608E496F608E496F622C6D8
:102C2000F4C608C6F4C608C6F4C608C6F4C62260D0
:102C30000D08C6A2E713C618C613C6D5E0F322C313
:102C4000E7960809E7960809E7960809E79622C378
:102C5000E09608A3E09608A3E09608A3E096227504
:102C6000D00075813F751801751904000225DE60DA
:102C70000C08C6C313C618C613C6D5E0F422E6F086
:102C800008A3E6F008A3E6F008A3E6F022E0F608C1
:102C9000A3E0F608A3E0F608A3E0F622CAC0E0E647
:102CA000F0A308DAFAD0E0FA22EAF0A3EBF0A3EC02
:102CB000F0A3EDF022E0FAA3E0FBA3E0FCA3E0FD2B
:102CC00022E0F8A3E0F9A3E0FAA3E0FB22E8F0A3F6
:102CD000E9F0A3EAF0A3EBF022E5C754F84401F5CC
:102CE000C77901222518F582E43519F583221229C6
:102CF000D9C9DF051229D9E5DF051229D92AE0054E
:102D00001229D9BAE0051229D912E1051229D9F4FC
:102D1000E1051229D9D9E2051229D91EE3051229A4
:102D2000D97FE3051229D90BE4051229D937E40527
:102D30001229D982E4051229D9A8E4051229D9401B
:102D4000E5051229D9E9E5051229D93CE60512293C
:102D5000D96DE6051229D9A4E6051229D948E80556
:102D60001229D914E9051229D9C7E9051229D9EC84
:102D700093071229D9FD93071229D99B9407122989
:102D8000D9B394071229D9F57F001229D9E9FF0494
:102D90001229D94795071229D95795071229D96CB5
:102DA00095071229D9B095071229D911910712292F
:102DB000D99491071229D9FA91071229D9F27F00E3
:102DC0001229D9EDFF031229D9FDFF031229D9E5F4
:102DD00095071229D9BC95071229D9C5950712293B
:102DE000D9CE95071229D9DC95071229D93CFA03C7
:102DF0001229D9A9FA031229D971FB031229D9E69C
:102E0000FB031229D9E9FC031229D98AFE031229EE
:102E1000D9EFFE031229D93AFF031229D94BFF0338
:102E20001229D95AFF031229D970FF031229D98315
:102E3000FF031229D994FF031229D97CC306122952
:102E4000D9A8C3061229D92AC6061229D981C606CD
:102E50001229D9C1C6061229D9D5C6061229D9EE1A
:102E6000C6061229D9DFC7061229D990C806122929
:102E7000D9A4C8061229D9EE8A071229D9128B07BC
:102E80001229D92B8B071229D95D8B071229D98DCD
:102E90008B071229D9BA8B071229D91C8C07122942
:102EA000D92B8C071229D9358C071229D9428C07C6
:102EB0001229D90A80071229D92A80071229D9692B
:102EC00080071229D98480071229D9A380071229E3
:102ED000D90981071229D91281071229D96F8107CF
:102EE0001229D97E81071229D9A281071229D96313
:102EF00082071229D97082071229D98182071229E3
:102F0000D9C294071229D9DA94071229D90695074C
:102F10001229D976DC061229D9CADD061229D9D898
:102F2000DD061229D9EBDD061229D900DE061229A9
:102F3000D915DE061229D928DE061229D99CDE060B
:102F40001229D901DF061229D9A3DF061229D96770
:102F5000E0061229D977E0061229D986E00612295F
:102F6000D95DFF051229D981FF051229D9A9FF05CD
:102F70001229D9D1FF051229D9AF82071229D9D632
:102F800082071229D9F582071229D95D83071229F0
:102F9000D9E2FB061229D9FBFB061229D907FC0648
:102FA0001229D91BFC061229D939FC061229D9434A
:102FB000FC061229D94DFC061229D960FC061229FB
:102FC000D9F1FC061229D960FD061229D994FD0613
:102FD0001229D9E2FD061229D92FFE061229D94A53
:102FE000FE061229D954FE061229D97AFE061229A4
:102FF000D9DFFE061229D942FF011229D964FF0147
:103000001229D92796071229D97EA4061229D9A8F0
:10301000A4061229D9C5A4061229D9D8A4061229B2
:10302000D9EEA4061229D94CA5061229D97FA506E6
:103030001229D974A9061229D9D4AA061229D907A6
:10304000AB061229D951AB061229D9C7AC061229F1
:10305000D9EFAC061229D904AD061229D914AD0650
:103060001229D958AD061229D9B3AD061229D9C3F0
:10307000AD061229D9A78D071229D9C18D071229AA
:10308000D9E98D071229D9028E071229D9268E0770
:103090001229D9448E071229D95B8E071229D989A2
:1030A0008E071229D9A48E071229D9A7FF03122946
:1030B000D952F8061229D962F8061229D969F906F7
:1030C0001229D99DF9061229D9C9F9061229D9EC74
:1030D000F9061229D90AFA061229D944FA06122940
:1030E000D9ADFA061229D9EFFA061229D92EFB0614
:1030F0001229D95FFB061229D98AFB061229D904A5
:10310000ED061229D969ED061229D90FEE0612290A
:10311000D946EE061229D9A8EA051229D93FEB05AE
:103120001229D96DED051229D958F0051229D9E6D1
:10313000F1051229D952F2051229D9A1F505122952
:10314000D9ECF6051229D9D78E071229D9228F0773
:103150001229D98AFD021229D99AFF021229D91AF5
:10316000F8051229D947F8051229D986F905122937
:10317000D91FFB051229D9A3FD051229D9DAFD05AE
:103180001229D928FF051229D9B8C8061229D95EF3
:10319000CB061229D903CC061229D92FCC06122925
:1031A000D95DCC061229D992CC061229D9BACC06FF
:1031B0001229D91ACD061229D9F08C061229D9D78D
:1031C00090061229D9C692061229D9EF9306122920
:1031D000D9CF94061229D97D96061229D9279806A7
:1031E0001229D9F798061229D94B99061229D956CE
:1031F00085071229D96185071229D98285071229E5
:10320000D9E8CE051229D95ED4051229D9CCD50525
:103210001229D988D7051229D981D8051229D9B3FD
:10322000D9051229D9C5DA051229D9A5DB05122934
:10323000D97CDC051229D96C9C051229D9A49C05DE
:103240001229D9CAA6051229D9ABA7051229D9F77F
:10325000A8051229D940AA051229D9F6AA051229CA
:10326000D9CAAB051229D9B1AC051229D999AD0536
:103270001229D93BAE051229D965AE051229D915F7
:10328000B0051229D985B0051229D99EB005122999
:10329000D9F5B1051229D9A6B2051229D928B30545
:1032A0001229D9D4B3051229D944B4051229D9E079
:1032B000B4051229D957B5051229D98FB505122998
:1032C000D991B6051229D950B7051229D9F6B705F3
:1032D0001229D97F89071229D9A989071229D9BEAC
:1032E0008A071229D9C18A071229D90093071229FE
:1032F000D94C93071229D98E93071229D99E930787
:103300001229D9E293071229D9FDBC061229D93B0B
:10331000BD061229D9A4BD061229D9C1BD0612299C
:10332000D9DABD061229D98CBE061229D995BE0656
:103330001229D9DABE061229D910BF061229D927B7
:10334000BF061229D999BF061229D926C00612290B
:10335000D95CC0061229D9B3C0061229D917C106F3
:103360001229D93AC1061229D99EC1061229D9FAC1
:10337000C1061229D935C2061229D96AC2061229F4
:10338000D97CC2061229D98EC2061229D9C6C20614
:103390001229D912C3061229D950C3061229D9B647
:1033A000D2061229D9F6D3061229D919D406122920
:1033B000D92AD4061229D91FD6061229D93FD606F2
:1033C0001229D984FD041229D9BAFD041229D9027F
:1033D000FE041229D95EFF041229D9E1E90212295B
:1033E000D912EB021229D94CEB021229D90BED02AA
:1033F0001229D935ED021229D9C2EF021229D902B8
:10340000F0021229D999F1021229D92CF2021229BB
:10341000D984F2021229D927F3021229D95FF302C3
:103420001229D9A1F3021229D910F5021229D96261
:10343000F6021229D985F8021229D9B3F802122905
:10344000D9DAF8021229D9E3F8021229D93AF90295
:103450001229D9CCF9021229D9BAFC021229D93D74
:10346000FD021229D90796071229D91D960712299C
:10347000D903E9061229D919E9061229D9BEE906A4
:103480001229D9FDE9061229D91AEA061229D94BBF
:10349000EA061229D998EA061229D9CBEA06122996
:1034A000D906EB061229D9F2EC061229D9F98F07B1
:1034B0001229D95890071229D9A390071229D9EABD
:1034C000FE061229D95CFF061229D99AFF06122995
:1034D000D9DBFF061229D9F3AD061229D9F9AD06B9
:1034E0001229D93AAE061229D92CB0061229D95C74
:1034F000B0061229D9CBB0061229D999B1061229E2
:10350000D9DAB1061229D908B2061229D992B2061F
:103510001229D9A9B2061229D9B6B2061229D9C0E0
:10352000B2061229D95CB4061229D96CB506122943
:10353000D9B5B5061229D9D2F6011229D9E8F60172
:103540001229D97BF7011229D9A7F8011229D99C90
:10355000F9011229D939FA011229D979FA01122966
:10356000D9F7FA011229D954FB011229D964FB01B8
:103570001229D98BFB011229D9DEFB011229D94F5F
:10358000FD011229D954FD011229D974FD01122916
:10359000D999DB031229D9CBDB031229D964DC03C7
:1035A0001229D9BDDD031229D9A4DE031229D96F4E
:1035B000E0031229D98BE0031229D9DAE00312299A
:1035C000D95CE1031229D9B2E1031229D9C5E1037B
:1035D0001229D929E2031229D984E2031229D93404
:1035E000E3031229D925E4031229D960E40312293F
:1035F000D9E6E4031229D9D6E6031229D997E703BD
:103600001229D9BEE8031229D93BE9031229D9FAB4
:10361000E9031229D97FEA031229D9CBEA03122937
:10362000D9E5EA031229D92EEB031229D944EB0379
:103630001229D9FAEB031229D920ED031229D92B2B
:10364000ED031229D992ED031229D9E5ED031229D0
:10365000D943EE031229D93FEF031229D9E2F1032E
:103660001229D901F2031229D912F3031229D936EA
:10367000F3031229D9ACF3031229D96CF4031229EC
:10368000D9A3F4031229D915F5031229D935F60364
:103690001229D965F6031229D978F6031229D97BA4
:1036A000F6031229D984F6031229D996F6031229B2
:1036B000D910F7031229D946F7031229D959F7036C
:1036C0001229D985F7031229D9ACF7031229D9D0C9
:1036D000F7031229D97EF8031229D9F0F803122929
:1036E000D927F9031229D931F9031229D968F90325
:1036F0001229D97EF9031229D99BF9031229D9C9B4
:10370000F9031229D9DFF9031229D9F7F90312298C
:10371000D909FA031229D91392071229D924920739
:103720001229D9AF92071229D985D7061229D9C3F0
:10373000D7061229D94FD8061229D95AD9061229E3
:10374000D976DB061229D9ABDB061229D9F2B506E8
:103750001229D941B6061229D9E1B7061229D9B5DD
:10376000B9061229D9F7B9061229D9C2BA061229FF
:10377000D9CABB061229D9ECBB061229D948BC0606
:103780001229D9C9BC061229D93951001229D95B8D
:1037900051001229D9EE52001229D93753001229AB
:1037A000D9AB53001229D92854001229D98D5400BD
:1037B0001229D99054001229D9D254001229D94182
:1037C00055001229D9F055001229D9F355001229B4
:1037D000D96856001229D9AB56001229D9A15A002E
:1037E0001229D90C5C001229D94A5C001229D9A0EF
:1037F0005C001229D9E65F001229D9636000122902
:10380000D91162001229D94163001229D9776400C5
:103810001229D9F164001229D91466001229D9B9E4
:1038200066001229D9CD66001229D99B670012299A
:10383000D9C468001229D9DD6A001229D9B76C00F1
:103840001229D9486D001229D95670001229D9F7CA
:1038500070001229D9E671001229D9357500122994
:10386000D94575001229D9C376001229D954770099
:103870001229D95178001229D9E879001229D98260
:103880007A001229D9A77B001229D9F17B001229CD
:10389000D9B17C001229D90080051229D9A0800550
:1038A0001229D90A81051229D92381051229D9BAE9
:1038B00081051229D9FE81051229D92083051229F3
:1038C000D95C83051229D9D883051229D923840507
:1038D0001229D98284051229D99285051229D9B2D3
:1038E00088051229D9D389051229D94E8A051229AA
:1038F000D9358C051229D9D58C051229D97C8D058D
:103900001229D9DF8D051229D9548E051229D963C0
:103910008F051229D93790051229D96D90051229E2
:10392000D99C90051229D95091051229D97C91056D
:103930001229D9FC91051229D97C93051229D9089D
:1039400095051229D95096051229D9BB9705122938
:10395000D9C798051229D96A99051229D9E3990579
:103960001229D9119B051229D9C1BA041229D924C7
:10397000BB041229D96CBB041229D9B0BB0412298B
:10398000D91ABC041229D963BC041229D99BBC04DE
:103990001229D935BD041229D98FBD041229D9DCC9
:1039A000BE041229D965BF041229D98CBF0412297B
:1039B000D996C0041229D981C1041229D9CEC104D3
:1039C0001229D9CDC2041229D9F5C2041229D93E2F
:1039D000C4041229D94FC4041229D967C404122976
:1039E000D950C5041229D936C6041229D93FC704B3
:1039F0001229D969C7041229D981C7041229D99B70
:103A0000C7041229D9D2C7041229D9F2C70412292E
:103A1000D919C8041229D930C8041229D90CC904EB
:103A20001229D964C9041229D90DCC041229D93C10
:103A3000CD041229D972CD041229D97CCD041229C2
:103A4000D993CD041229D900CE041229D9E9CE0484
:103A50001229D91FCF041229D9F0CF041229D991E4
:103A6000D0041229D9BFD0041229D9CCD1041229EB
:103A7000D9EBD1041229D96ED2041229D9DFD2048C
:103A80001229D923D3041229D9A7D3041229D9047E
:103A9000D4041229D9B1D4041229D997D6041229F1
:103AA000D977D7041229D9CDD7041229D92BD90413
:103AB0001229D950DB041229D9FADD041229D9A41C
:103AC000DF041229D974E0041229D9ECE004122988
:103AD000D90EE1041229D9FDE1041229D9EDE2043D
:103AE0001229D958E3041229D9BFE0061229D9D3E3
:103AF000E2061229D999E3061229D9EEE306122922
:103B0000D96BE4061229D9FFE4061229D91DE5066E
:103B10001229D961E5061229D987E5061229D9ADFE
:103B2000E5061229D9C5E5061229D9DDE5061229CF
:103B3000D948E6061229D98AE6061229D99FE6064F
:103B40001229D9A6E7061229D989F9041229D9CA56
:103B5000E7061229D9D3E7061229D9DCE70612298C
:103B6000D9E6E7061229D907E8061229D984E8061A
:103B70001229D9CDCD061229D92ED2061229D94A19
:103B8000D2061229D94FD2061229D905880712293F
:103B9000D9AEF4061229D9C4F4061229D94AF60678
:103BA0001229D993F6061229D9FFF6061229D9CF80
:103BB000DD051229D921F8061229D933F806122970
:103BC000D94C8C071229D96E7D001229D9CA7D00E3
:103BD0001229D90A7E001229D9737E001229D99799
:103BE0007E001229D9AC7E001229D9CC7E00122980
:103BF000D9EC7E001229D9FC7E001229D9137F004E
:103C00001229D93F7F001229D9CF7F001229D9BDAF
:103C1000FF041229D90080031229D9328003122906
:103C2000D99E80031229D93981031229D9D8810359
:103C30001229D91D82031229D93F82031229D9588A
:103C400082031229D97E82031229D9A08203122964
:103C5000D9DE82031229D92283031229D94483038E
:103C60001229D9A683031229D96D84031229D924D4
:103C700085031229D99685031229D968860312294A
:103C8000D9B286031229D90587031229D96B870374
:103C90001229D9A587031229D9F787031229D91325
:103CA00088031229D93E88031229D9458A0312298B
:103CB000D9998B031229D9BB8B031229D9EF8B0316
:103CC0001229D9108C031229D91F8C031229D92A41
:103CD0008C031229D9DA8C031229D9438D031229B6
:103CE000D9F08D031229D9288E031229D9EE8E031B
:103CF0001229D9FB8F031229D94590031229D9D44F
:103D000090031229D93891031229D97391031229EA
:103D1000D9DF93031229D93395031229D96C98035B
:103D20001229D93999031229D9C799031229D9DB44
:103D300099031229D9049A031229D9769A031229D0
:103D4000D90A9B031229D97A9B031229D9629C03B1
:103D50001229D9849C031229D9EA9D031229D90377
:103D60009E031229D9169E031229D9739E03122984
:103D7000D9829E031229D90B9F031229D9219F03AF
:103D80001229D92DA0031229D93AA0031229D94307
:103D9000A0031229D91BA2031229D94BA30312296C
:103DA000D95BA3031229D96AA4031229D9E1A40378
:103DB0001229D91AA5031229D94AA6031229D99082
:103DC000A6031229D95CA8031229D934AC031229FD
:103DD000D948AC031229D952AC031229D95CAC03DF
:103DE0001229D966AC031229D970AC031229D989DA
:103DF000AC031229D993AC031229D911AD031229AE
:103E0000D91CAD031229D949AD031229D96EAD03CE
:103E10001229D979AD031229D9C7AD031229D9D1F5
:103E2000AD031229D9DCAD031229D900AE03122942
:103E3000D924AE031229D980AE031229D9C6AE0304
:103E40001229D9E3AE031229D960AF031229D997F9
:103E5000AF031229D9D6AF031229D923B0031229EF
:103E6000D9A5B0031229D93EB1031229D90EB30343
:103E70001229D96CB3031229D988B4031229D9AEF7
:103E8000B4031229D9EDB5031229D913B9031229A4
:103E9000D954BB031229D930BD031229D9C6BD0399
:103EA0001229D9EDBF031229D999C0031229D9CEFD
:103EB000C0031229D933C1031229D93DC1031229E4
:103EC000D967C3031229D955C4031229D99EC50342
:103ED0001229D9DEC5031229D984C6031229D9159E
:103EE000C8031229D99EC9031229D9BEC9031229B0
:103EF000D917CA031229D919CB031229D963CB03C5
:103F00001229D9B3CB031229D99DCC031229D91276
:103F1000CD031229D92CCE031229D9A7CE031229F9
:103F2000D9ACCF031229D957D2031229D976D2039B
:103F30001229D9D7D3031229D999D5031229D9ED3A
:103F4000D5031229D9A5D6031229D954D70312298A
:103F5000D9B4D7031229D96AD8031229D9FFD803B3
:103F60001229D96BD9031229D9A5D9031229D9D677
:103F7000D9031229D932DB031229D9008002122970
:103F8000D93280021229D96980021229D9508202BD
:103F90001229D99082021229D97383021229D9CB0E
:103FA00083021229D90685021229D95285021229C3
:103FB000D97A88021229D9E68B021229D9338D02C7
:103FC0001229D9C98D021229D9D58D021229D907F2
:103FD0008E021229D9898F021229D99790021229AB
:103FE000D9C190021229D91891021229D9719102CE
:103FF0001229D9DD91021229D9F493021229D98309
:1040000095021229D94D96021229D98B97021229AD
:10401000D9BB99021229D98B9C021229D9989C02EA
:104020001229D91F9D021229D9C79D021229D90A26
:104030009E021229D9539E021229D9A79E02122943
:10404000D90C9F021229D9749F021229D9919F027B
:104050001229D9C19F021229D9F69F021229D9C665
:10406000A0021229D96FA1021229D9F3A3021229A1
:10407000D913A5021229D9FCA5021229D97EA602BC
:104080001229D9A0AA021229D9DDAA021229D935EA
:10409000AB021229D968AB021229D9E9AB02122965
:1040A000D936AC021229D9C1AC021229D913AD02FA
:1040B0001229D9EAAD021229D9A3AE021229D93E9A
:1040C000AF021229D957B2021229D977B3021229A5
:1040D000D928B7021229D946B8021229D949B802FB
:1040E0001229D978B8021229D97EBA021229D957D1
:1040F000BB021229D98CBB021229D994BC02122905
:10410000D94ABD021229D9F0BE021229D954BF02E0
:104110001229D979BF021229D9B8BF021229D9F9B7
:10412000BF021229D9D1C0021229D9AFC102122966
:10413000D9DCC1021229D9A9C2021229D9DFC402CD
:104140001229D950C5021229D990C5021229D9C9FC
:10415000C5021229D95DC6021229D9A6C7021229A1
:10416000D969CB021229D958CC021229D93FCD02E4
:104170001229D9B7CD021229D979CE021229D92F05
:10418000D0021229D9B7D0021229D9CCD1021229D2
:10419000D9DDD1021229D9F5D1021229D906D202CC
:1041A0001229D91AD2021229D952D2021229D9803F
:1041B000D2021229D907D4021229D9D9D40212293C
:1041C000D960D5021229D99BD5021229D9F9D50275
:1041D0001229D940D6021229D905D8021229D9B7F5
:1041E000D8021229D9E7D8021229D9CBD90212292B
:1041F000D97CDA021229D937DC021229D9EEDC0285
:104200001229D923DD021229D98BDD021229D9BA4C
:10421000DE021229D96CDF021229D99DDF02122990
:10422000D9B5DF021229D944E0021229D9F8E202F5
:104230001229D9D0E4021229D9ECE4021229D908B2
:10424000E5021229D9D6E5021229D9BFE9021229BD
:10425000D9F5F0061229D935F1061229D9E8F20666
:104260001229D9F7F2061229D99DB8051229D9B415
:10427000BD051229D9FFBD051229D94FC005122944
:10428000D9E3C1051229D971C2051229D9D2C405B1
:104290001229D9D7C6051229D92BC7051229D93A0F
:1042A000C9051229D98DC9051229D9E8C9051229CC
:1042B000D90ACA051229D911CA051229D929CA054C
:1042C0001229D909CB051229D9E8CB051229D9A978
:1042D00081011229D9EB81011229D92187011229E3
:1042E000D96D87011229D9B387011229D902890111
:1042F0001229D95E89011229D9A389011229D93637
:104300008B011229D98C8E011229D9B18F01122962
:10431000D9339B011229D9C69B011229D9239F01A8
:104320001229D962A0011229D9BDA0011229D905EB
:10433000A2011229D9F1A2011229D988A5011229B5
:10434000D9F7A6011229D97EA7011229D981A7017F
:104350001229D9F6A7011229D900A8011229D90DCD
:10436000A8011229D938A8011229D9E8A8011229CF
:10437000D9E5A9011229D98FAA011229D91CAB01AB
:104380001229D93AAB011229D953AB011229D97C90
:10439000AB011229D99EAB011229D9E4AD01122932
:1043A000D9C7AE011229D90DAF011229D98CAF019D
:1043B0001229D938B0011229D96AB0011229D9BC01
:1043C000B0011229D9F8B0011229D937B101122947
:1043D000D987B1011229D98CB1011229D9E0B101D3
:1043E0001229D90CB2011229D9E8B2011229D938FF
:1043F000B3011229D9A5B3011229D9FFB30112299A
:10440000D996B4011229D9DBB7011229D9F3B80121
:104410001229D98CBA011229D9BFBD011229D9514B
:10442000BE011229D948C1011229D907C201122996
:10443000D94BC2011229D9F0C3011229D904C401F0
:104440001229D90EC4011229D918C4011229D9245C
:10445000C4011229D940C4011229D9A0C6011229C8
:10446000D9DFC6011229D9E9C6011229D9F3C6013B
:104470001229D979C7011229D9D1C7011229D9EE38
:10448000C8011229D952C9011229D95FCA011229BA
:10449000D9A3CA011229D94FCB011229D928CC019D
:1044A0001229D9E3CC011229D9F0CD011229D92A38
:1044B000CF011229D927D0011229D93FD0011229C1
:1044C000D996D0011229D9A0D0011229D9AAD00198
:1044D0001229D9B5D0011229D9D3D0011229D91B5B
:1044E000D1011229D97DD1011229D9A4D1011229D2
:1044F000D9B6D1011229D951D2011229D986D201B6
:104500001229D985D3011229D9D3D3011229D9CDA2
:10451000D4011229D903D5011229D986D50112292E
:10452000D9F7D5011229D9A3D7011229D9CDD8019C
:104530001229D990D9011229D961DA011229D9CCCD
:10454000DA011229D949DB011229D976DC011229B5
:10455000D90ADD011229D95ADD011229D9C5DD0197
:104560001229D98BDE011229D9D5DE011229D92DC4
:10457000DF011229D905E0011229D928E001122909
:10458000D9EBE0011229D90DE1011229D976E10117
:104590001229D98CE3011229D97CE4011229D946C8
:1045A000E5011229D97EE7011229D9C8E7011229AC
:1045B000D918E8011229D985E8011229D9E7E801BB
:1045C0001229D915E9011229D939E9011229D96E1F
:1045D000E9011229D99FE9011229D9D2E901122949
:1045E000D92CEA011229D97FEA011229D9ABEB01B2
:1045F0001229D958ED011229D9A6ED011229D9CFD6
:10460000ED011229D95BEE011229D9D0EE01122950
:10461000D9DEEE011229D902EF011229D95FEF018B
:104620001229D97EEF011229D934F0011229D96C4F
:10463000F0011229D9AFF0011229D912F101122982
:10464000D904F3011229D92EF3011229D932F40128
:104650001229D944F5011229D9F4F5011229D96991
:1046600099061229D9A199061229D9C299061229A7
:10467000D9049A061229D9669A061229D9709A067F
:104680001229D9809A061229D9BB9A061229D99BD8
:104690009E061229D988A0061229D96EA2061229CF
:1046A000D905A3061229D9A7A3061229D9968004F1
:1046B0001229D94181041229D9EF81041229D9F58F
:1046C00082041229D91583041229D93E840412299F
:1046D000D9F985041229D96C86041229D9108704C6
:1046E0001229D91C88041229D98788041229D9C310
:1046F00088041229D90689041229D941890412296A
:10470000D98389041229D9188A041229D9948A04D0
:104710001229D95E8B041229D93B8C041229D9D3D2
:104720008C041229D9ED8C041229D91D8D0412296B
:10473000D94E8D041229D9148E041229D9248E043D
:104740001229D9738E041229D9808E041229D9898D
:104750008E041229D9078F041229D9638F041229D4
:10476000D9AE8F041229D9C98F041229D9F48F0424
:104770001229D91190041229D91D90041229D9B4F3
:1047800091041229D9CD91041229D95292041229E7
:10479000D96592041229D98492041229D928930444
:1047A0001229D9A994041229D95C96041229D9F2A4
:1047B00096041229D9F596041229D965970412296D
:1047C000D98397041229D91A98041229D962980416
:1047D0001229D96598041229D92B99041229D9983C
:1047E00099041229D9BE99041229D9499A04122987
:1047F000D9679A041229D9AD9A041229D9619B0468
:104800001229D9AB9B041229D9DA9B041229D93772
:104810009C041229D96C9C041229D9989C04122951
:10482000D9A69C041229D9F39C041229D9639D04AA
:104830001229D9AC9D041229D9F89D041229D92432
:104840009E041229D92F9E041229D94D9E041229A3
:10485000D9389F041229D9429F041229D97D9F0477
:104860001229D98D9F041229D9969F041229D9EAB9
:104870009F041229D9FE9F041229D92DA1041229BF
:10488000D940A1041229D955A1041229D9E3A104C0
:104890001229D928A2041229D9B4A2041229D9BFF5
:1048A000A2041229D901A4041229D91CA404122992
:1048B000D968A4041229D9D7A4041229D910A504AF
:1048C0001229D92AA5041229D98AA5041229D9297D
:1048D000A6041229D974A6041229D944A9041229BC
:1048E000D9F6A9041229D963AA041229D9A3AC04C0
:1048F0001229D9BBAC041229D9BEAC041229D9CAD9
:10490000AC041229D9DEAC041229D9E6AC04122970
:10491000D919AD041229D91CAE041229D9A9AE04A3
:104920001229D919AF041229D99BAF041229D95CD5
:10493000B0041229D97BB0041229D91CB104122960
:10494000D979B1041229D97CB1041229D9F0B10462
:104950001229D93FB3041229D945B4041229D9D058
:10496000B4041229D9EBB5041229D9B3B60412291B
:10497000D9E4B6041229D907B7041229D910B7040B
:104980001229D93FB7041229D9CFB7041229D985E2
:10499000B8041229D9FAB8041229D9A1B9041229E4
:1049A000D916BA041229D94DBA041229D98BBA04DE
:1049B0001229D932F9041229D986F8041229D9BE4C
:1049C000F6041229D907F6041229D9D4F5041229BC
:1049D000D989F5041229D924F5041229D9E3F4045C
:1049E0001229D9C3F4041229D9F5F3041229D98262
:1049F000F3041229D920F3041229D9C3F20412298D
:104A0000D936F1041229D9D3F0041229D927F00498
:104A10001229D91EF0041229D912F0041229D9DF63
:104A2000EF041229D990EC041229D962EC0412295E
:104A3000D9FDEB041229D9EAEB041229D9DFEB04E2
:104A40001229D991DD051229D9A3EB041229D96BBA
:104A5000DD051229D9EFDC051229D9F5FC0412294C
:104A6000D9AAFC041229D93EFC041229D9DBFB0483
:104A70001229D9D1E9041229D9BAE9041229D9F0A5
:104A8000E8041229D94DE8041229D9B1FB041229EE
:104A9000D971E6041229D913E5041229D908E504CD
:104AA0001229D980E4041229D9F2F7061229D9175C
:104AB000E4041229D935FB041229D9F3E30412299D
:104AC000D9B98C061229D9728C061229D9118C06F3
:104AD0001229D9DC8B061229D9B18B061229D97D6E
:104AE0008B061229D9558B061229D9D88A06122984
:104AF000D9C28A061229D9928A061229D9088A06A9
:104B00001229D94D86061229D90584061229D9DD24
:104B100081061229D95F81061229D910810612292E
:104B2000D90080061229D99D80061229D95E8006F7
:104B30001229D9C1E70600000080FBE4738F000151
:104B4000000E1E87000100041A35000400D21D2546
:104B5000000200D61D26000200D81D27000200DA40
:104B60001D28000100E41D29000100E51D8400044A
:104B700000DC19860001007C1D2A000100E61D2BC7
:104B8000000100E71D2C000100ED1D2D000800EACA
:104B9000192E000100EE1D2F000100EF1D30000155
:104BA00000F01D31000100F11D32000100F2193347
:104BB000000100F31934000100F21D36000100F479
:104BC0001938000100F31D39000100EC1D830002BB
:104BD000000B1E63000100FF1964000100E81D6561
:104BE000000100E91D6D000100001A71000800E2DB
:104BF00019660001000A1E43000100FB1D4400026B
:104C000000FC1D45000100FE1D46000200FF1D477F
:104C1000000800F71948000100011E4B00010002C6
:104C20001E040001000D1EA1000100111E3700012D
:104C300000101E880001000F1E3C000100F5193D08
:104C4000000100F41D49000200031E67000100017D
:104C50001A4D000200051E4E000100071E4F000203
:104C600000081E3E000100FA1D51000100F61D5211
:104C7000000100F71D53000100F91D54000100F66A
:104C80001900000000000000013636010100010299
:104C900001000103010001040106060502000007EE
:104CA0000100340801000F090401010D0100FF0E8D
:104CB00008000017020000190100FF1A0100011B83
:104CC0000100FE1C0100081D0200001F0100012060
:104CD000010001210200002301000F240200002630
:104CE00001000127010008280200FF2A0100072B0C
:104CF0000102402C0100002D0100012E0100012FB6
:104D00000100FF30010B1D310800003A0100083B93
:104D100001000F3C0100013D0100FF3E0400004284
:104D2000040000460400004A0400004E0400005243
:104D3000040000560400005A04000001037103013E
:104D40000301030103010301032203020301031012
:104D500003000300030003000300030003000342F9
:104D600003000324030603000300030403120325C6
:104D700003230325032303040304030003000300A8
:104D800003440300030003230300036503210035EC
:104D90000381030003050300030003000300032550
:104DA0000323030302710230016002110270020149
:104DB00002020202028002100261023A0041006314
:104DC0000273027202620243020002130238000000
:104DD00002000204021202000200020002000204A9
:104DE000020402370037003C02440200023900008E
:104DF0000200026502000235028102000205028201
:104E00000283020002030071003001600011007093
:104E100000310220035004800010006100000014E3
:104E2000006300730072006200430000001300067C
:104E3000000000000004001200000000000000005C
:104E40000004000400370037003C0244000000006A
:104E50000000000000650000003500810000000532
:104E60000000008300000001017101010101011136
:104E70000101013101010101018001100161013BCA
:104E80000014006301730172016201430100011308
:104E90000106013D0135000401120100010001007D
:104EA00001000104010401330133013C01440132DA
:104EB000013600000100016501000135008101009B
:104EC00001050182018301000103047104020460F1
:104ED00004110470040204020401040204100461B9
:104EE00004000414046304730472046204430400A1
:104EF0000413040604000400040404120400040063
:104F0000040004000451046400000400040004448C
:104F10000400040004000400046504000435048156
:104F20000464000504000483040004360001000644
:104F30000000000F00000000000000000000000062
:104F40000003FFFF00000403FFFF0000FFFF0FF45A
:104F5000010005C4040320000100000B0000000054
:104F60000000000003010F0000000000000000002E
:104F70000000000000000000000000000000000031
:104F800000000000000000000013002E381F003455
:104F9000381F803A380000D6380100D6380200B0F9
:104FA000370280AA370300B6370400BC370480C23A
:104FB000370500C8370600D4373000F2373100EC2F
:104FC000373200FE373300043835000A3834001019
:104FD000383600163811002238140028381500E63B
:104FE00037FFFF00000A000000020000000400007C
:104FF0000008000000100000002000000040000039
:105000000080000000000100000002000000040019
:105010000000080000001000000020000000400018
:1050200000011443064443083E430B6243102A3FE9
:105030000A7443021A430532430720430CFC420D15
:10504000084364F63CFF000007ECFDFDFDECDCDCF2
:10505000CCBCACAC9C9C8C7C7C6C6C5C5C5C4C4C30
:105060003C3C2C2C1C1C00160F00000B150B0200E6
:1050700002220F3300000E0F0000000000000000AD
:1050800000000000000000005A6967426565416C3D
:105090006C69616E63653039D0D1D2D3D4D5D6D79F
:1050A000D8D9DADBDCDDDEDF140AE5D5C5B5A5A588
:1050B000958585756500034D4C4651181A250502E6
:1050C0000001191618161618230300303016181987
:1050D00020231A1C1E30003C40423A3F3F392F47E4
:1050E00030303017181921301B1D1F300C0E020BE9
:1050F000040B0A0708000F02040201010101090262
:1051000000BE040AE8030000FA0648500C001E0026
:1051100000000000A8500E00E8037F001E050CFFF1
:105120000404080028040002090809033C0C0305D4
:10513000080B0300FF0A0C1010C082C083901853A4
:10514000E4F0A3F07C327D1B7A6D7B171234CE1213
:105150003D26123F78123D2C0266C674F212245589
:1051600074FE122AD2E9FF8A08EBFE8C09E970333B
:1051700074026A701679081236FCE4F50AF50B78A9
:105180000A122A2C780A122A30805374016A6003AA
:105190000252C079081236FC7B00EEFAF9123D98F3
:1051A0000252BB74016F600874026F60030252C048
:1051B000EA600874036A600302525B12419AE96074
:1051C0005374036508604D1233248A0A8B0B780AE6
:1051D000122A2C750A01780A122A30750A00780AF8
:1051E000122A30E509F50A780A122A30EEF50A7813
:1051F0000A122A30901787122855901D7CE0F97CFE
:10520000F77D19901E0B1264ED123D50740A12299D
:10521000EE0252BB79021236FC901D7CE0F9901729
:1052200087122CB5123D3EE9F8901797E0A2E340B3
:1052300010E9700D901857E004F0640470031252E6
:10524000DC740365087076901858E0F9740129F051
:10525000E9C3940540671252DC806274016A706091
:1052600074016F790A702C1236FC7A007B04901C52
:1052700003E0F9123492AA18AB1979501261E112C5
:1052800061FCE812768E7900901BB61264ED123D37
:10529000E080441236FC901DE01228557A007B20F5
:1052A00090178CE0F912348674041229EE901D7C5C
:1052B000E0F9901787122CB5123D7AE9F8E86017EB
:1052C00090819C1228557A017B0090178CE0F9128E
:1052D000348674041229EE7402027B22901787E44C
:1052E000F0A374F8F0A374FFF0A37407F02274F62F
:1052F000122455E9FFEAFE7AD1F91233488A828BEB
:1053000083E5824583702A7A027B0012332AEA4BB6
:10531000700E7A107B0090178CE0F912336C8014B9
:105320008A828B8374D1F0EFA3F0EEF912333680CA
:1053300003EFA3F002553C74F7122455890890043A
:105340000112660F901DC8E0F47003A3E0F4703002
:10535000900701E0901DC8F0A3E4F080238E828FB7
:1053600083126470600F8E828F83A3A312646DFA20
:10537000A9081237928E828F831261EEE8FEE9FF50
:10538000EE4F70D9901DC8E0F47003A3E0F4600AFA
:10539000901DC8E0FAA90812379212443A901757A4
:1053A000125C441244347F010226D174F012245559
:1053B000890B8C0C7509007508007410122CE4120E
:1053C00061EE7412122CE41255EA8047125474F5FF
:1053D0000EA3E0F50FAE08EE2EFEE433FFEA2EF545
:1053E00082EB126ABB650E7004A3E0650F7019AE04
:1053F00009EE2EFEE433FFEC2EF582ED3FF583E55A
:105400000EF0A3E50FF00509050AE50AC3950C4067
:10541000BB0508E508C3950B5005750A0080EBA98C
:105420000980007F080226D174F4122455890B7D6F
:1054300000740C122CE41261EE80010DEDC3950B8B
:10544000502E750A008002050AE50AC39C50ECED57
:1054500025E0FEE433FFEA2EF582EB3F12765C1284
:10546000547465087004A3E0650970DB790180025B
:1054700079008014AE0AEE2EFEE433FFE82EF582AA
:10548000E9125BE1221229EE7F040226D10229D61D
:1054900074F61224551255267003A3E06D7017752B
:1054A00008957509177808122A2CEEFA1238DC7460
:1054B000021229EE801A7508027509807808122AEE
:1054C0002C8A0889097808122A2C1255141229EE00
:1054D000806A74F61224551255267003A3E06D708D
:1054E000177508A27509177808122A2CEEFA1238D7
:1054F000E274021229EE801A750803750980780893
:10550000122A2C8A0889097808122A2C125514129A
:1055100029EE8028EE240E125BDEFD7C8012676C83
:10552000123900740422EAFEEBFF126781FCE439B1
:10553000FD901757E06C2274021229EE7F020226BA
:10554000D174F612245574FE122AD28A088B09856A
:105550001882851983E4F0A3F012605D1268B5FB30
:10556000ECFA88828983A3A3E0F97F007E006005BE
:1055700074FF6970047E828045901757E06A70035B
:10558000A3E06B701AAA18AB19124AE8E9FA851859
:10559000828519831266B370027E83EAFF801F90B2
:1055A0001A04E060046401700E123CAEE960047EEF
:1055B00089800B7E818007E0640270027E80125534
:1055C000E4EEF9AA08AB091238E8EF6014851882F6
:1055D0008519831266B36009851882851983127054
:1055E000F0025537851882851983E0FCA3E0FD227F
:1055F0000229D674F2122455EAFEEBFF75080075F5
:10560000090012677DF50AE439F50B12443AEA65A0
:105610000A7003EB650B7012124AD6E914F508798B
:10562000017A1F7B18124AD08003750980126AB56F
:10563000F50C780C122A30750C1F750D18780C12A9
:105640002A2C7808122A30780A122A2CE509F50843
:105650007808122A301264DC126AB8F97A057B8065
:105660001238EE7407027B2274F6122455E9FF7E8D
:105670000080308A828B83127664F8E4C8F9E508EA
:1056800028E439F509EE25E0F8E433F9EC28F58251
:10569000ED39F583E508F0A3E509F0EA2402FA50B4
:1056A000010B0EEEC39F40CB02553C74E81224550B
:1056B00074FE122AD28A108B11750F00851882850C
:1056C0001983E4F0A3F0F516F51712633C351112B7
:1056D0007834127C95FA8E828F83A3A3A3E0F9EA33
:1056E000F508E439F509AA0AAB0B1244D6E96401BE
:1056F000702B1274B5122A30E4F508F509780812F7
:105700002A2C7808122A30780A122A2C75088078F8
:1057100008122A30125A831229EE025A6CAA0AABD6
:105720000B1244D6E97041901757E0650A7004A344
:10573000E0650B6033901A04E0640270281274B5BF
:10574000122A30E4F508F5097808122A2C78081294
:105750002A30780A122A2C7508807808122A30120A
:105760005A831229EE025A6C8E828F83A3A3A3A3BD
:10577000E0F50BEE2405FE50010FE50B602A127BCD
:1057800079851882851983EAF0A3EB126AD2E84979
:1057900060161255E4EEFAEFFBA90B1237CE8A0C15
:1057A0008B0DAE0CAF0D8003750B00127B8F601A52
:1057B000127B798A168B17EA4B600FAC16AD17EE89
:1057C000FAEFFBA90A1237CE8003750A0090040194
:1057D00080508E828F83A3A3A3A3A3A3A3A3E4F0EB
:1057E000A3F0EEFAEFFB851482851583A3A3E0F8FE
:1057F00012646DF9123336851282851383E0C0E09E
:10580000A80F741F28F582E43418F583D0E0F00562
:105810000FA2005007AA12AB131233D2851482854F
:105820001583E0F514A3E0F515E5144515700302A2
:1058300059EA85148285158312647060DF851482AD
:10584000851583A3A3A3A3A3A3A3A3E0A2E050CCA5
:10585000851482851583A3A3A3A31266B38514823E
:10586000851583A3A3601E126472FA7901851482E0
:10587000851583A3A3A3A3125A76124B3B8A128BDE
:1058800013D2008010125A76A3A3A3A3E0F512A3AB
:10589000E0F513C200E5124513700302581185129A
:1058A00082851383A3E065087004A3E06509600F97
:1058B00074FF6508700474FF650960030258118560
:1058C0001282851383A3A3A3A3A3A3A3122859859C
:1058D0001282851383A3A3A3A3A3A3E0FC740212E3
:1058E0002CE41264EDA90B1237A474021229EEE91C
:1058F0007038851282851383A3A3A3A3A3A3A3A3B4
:10590000A3A3122859851282851383A3A3A3A3A35B
:10591000A3A3A3A3E0FCAA16AB17A90A1237A47489
:10592000021229EEE97003025811E50A250BC33370
:10593000240AFA7B0012332A8A0C8B0DAE0CAF0DB1
:10594000EA4F70030257F78A828B8374D2126CABD2
:105950008A828B83A3A3127035A3A3A3E50B127CC9
:10596000A6E50B6033EA240AFAE43FFB8E828F83BC
:10597000125C3F851882851983E0F50CA3E0F50DD4
:10598000750E00780C122A28AC0BEC2CFCE433FDCD
:10599000127C8F1229EE800D8A828B83A3A3A3A38E
:1059A000A3E4F0A3F0E50A70030257D2A80BE8289D
:1059B000F8E433F9EE28F8EF39F9E8240AFAE43983
:1059C000FB8E828F83A3A3A3125C3F85160C8517E1
:1059D0000D750E00780C122A28AC0AEC2CFCE4336E
:1059E000FD127C8F1229EE0257E2E50F602512743A
:1059F000B5122A3075081F7509187808122A2CE587
:105A00000FF5087808122A30901757122859750890
:105A100000802DE510240BF582E43511F583E0704C
:105A20002A1274B5122A3075081F750918780812E1
:105A30002A2C7508007808122A3090175712285916
:105A40007808122A30125A831229EE851882851995
:105A5000831266B360098518828519831270F0E598
:105A60001645176007AA16AB171233D27402122913
:105A7000EE7F100226D1125A7A22E0F8A3E0F583D5
:105A8000888222E5102402FCE43511FDE510126441
:105A9000673511F583E0F97A067B801238EE7407DA
:105AA0002274F412245574F4122AD28A088B09EC59
:105AB000FEEDFF740B122CE47403F0122A941234DE
:105AC000CE1266017403122A941234C8E9600A12D5
:105AD0005BD56010E06401600B85188285198374C2
:105AE00084025B9C8E828F83A3A3A3A3A3A3A3A3FF
:105AF000E06013F46010125BD57016EE2414126A85
:105B0000B86003F4700B8518828519837482025B78
:105B10009C127828E064217002A3E07055851882F9
:105B2000851983748C12620BE0F50A780A122A3008
:105B3000125BE612408674011229EEE9705F851847
:105B400082851983E4F01236D8125BD5704F740148
:105B5000122A9CEE240BFAE43FFB1240A4E9703DAC
:105B60007D007C007900EE240BFAE43FFB1238A69E
:105B7000802BEE2414126AB8F50A780A122A301221
:105B80005BE612408C74011229EEE98518828519B2
:105B9000837007E4F01236D880037488F012743BE7
:105BA000F50A780A122A307401122A8C880A890BA5
:105BB000780A122A2CE508240CF582E435091262D1
:105BC000034480F50B780A122A2C1265E31229EEA1
:105BD000740C025485EE2413125BDE640322F582FA
:105BE000E43FF583E022EE240BFCE43FFD8E828F40
:105BF00083A3A3A3A3A3A3A3A3A31274728E828FD0
:105C000083A3A3A3A3A3A3A3A3E0F922C082C08379
:105C100074F3122AD2851882851983E4F004122CB9
:105C2000E4125C447403122CE4AA82AB83123C3667
:105C3000AA18AB19123C72740D1229EE0266C6A3A3
:105C4000A3A3A3A3EAF0A3EBF02274F6122455EA6F
:105C5000FEEBFFEA2413126AB8F8A3E0125C91F895
:105C600090179DE058F508A3E059F509E5084509A6
:105C7000601C7808122A2C901757122859126AB5FE
:105C8000FD7C001267681238FA74041229EE02557E
:105C90003C8882F583125C9922E0FAA3E0F9EA22BB
:105CA00074EA12245574DB122AD28A148B157512E9
:105CB00000751300750A0012633C3515F5831264F4
:105CC00072F50EAC18AD197A007B00799C123DB0CC
:105CD000901A04E06004640170147A047900123CA4
:105CE0009CEAF50A851882851983E02A80088518C0
:105CF000828519837401F0E0F8E50EC39840030231
:105D00005EF2E0C3950EF509C394044003750903E0
:105D1000E50975F01AA4FAABF01233CC8A128B1392
:105D2000EA4B7003025EF5750B00AE12AF13850EE1
:105D300008025DBA7C087D0079FFEE240AFAE43F90
:105D4000FB123312850C82850D83A3A3A3A3E070FD
:105D50002D850C82850D831266B370091276391277
:105D60005F99E48010125F76F0901BC9E014C0E0E8
:105D7000125F5DD0E0F0125F61125FA88032901B6D
:105D8000C9E004C0E0125F5DD0E0125FD5C39403A8
:105D9000EE4003025E3B1277327402125FD564015B
:105DA0007003025E48EE2415125F79125F8A740157
:105DB000F0EE241AFE50010F050BE50BC3950940C8
:105DC00003025EA7E508C3950A4003025E51AA08D4
:105DD0007B00123CDE8A0C8B0D0508901BB6125F0F
:105DE000BB850C82850D83125F82F0A3E9125FAD43
:105DF000125F5D74FF125FDAA3A3A3A3A3A3E0C0A5
:105E0000E0125F4BD0E0F07401122CE4E4F0850C5A
:105E100082850D831261EE7402122CE4E812768EF4
:105E20007401122A94123C60E964016003025D343B
:105E30007404122CE4125F67025D44125F77125FF4
:105E4000D564036003025DA5EE241512763C025D65
:105E5000ABE50AC3950E40057508008051E50EC3F9
:105E6000950AF5088048EE241512763C125FA8F0DA
:105E7000901BC9E014C0E0125F5DD0E0125FAD740A
:105E80001D122CE4E0C0E0125F4BD0E0F0125F5531
:105E90001266B170051276398003125F76F0EE2437
:105EA0001AFE50010F050BE50BC395095047740E00
:105EB000122A9CAA087B007987123DB00508741845
:105EC000122CE4125FBB7410122CE4125F67740E84
:105ED000122CE4125F8212768E901A04E060046441
:105EE000017083125F61125F8A7403125F9974FFFD
:105EF000808A750900750A00780A122A3078121211
:105F00002A2C7809122A30E50EF5097809122A3070
:105F10007405122CE4E0FD7C00E51412645E351576
:105F2000FBE5141264633515F583E0F91239367414
:105F3000051229EEE51245136007AA12AB131233BE
:105F4000D274251229EE7F0E0226D1EE2419F58295
:105F5000E43FF58322EE2412F582E43F22125F9E95
:105F6000221276B9740222AC82AD83EE240AFAE4DE
:105F70003FFB1234CE22EE2414F582E43FF5837405
:105F8000012212769B1276AFE822125F8E22F0EE8B
:105F90002416F582E43FF58322F0125F9E22EE2460
:105FA00018F582E43FF58322125F8EE422F0EE249E
:105FB00017F582E43FF5837402F02212769B8E82FD
:105FC0008F83E8F0A3E9F07CCA7D1BEE12645E3F8C
:105FD000FB1234CE22125FDAE022F0850C82850DAE
:105FE00083A3A3A3A32274F612245574F9122AD210
:105FF000126059127D58851882851983122CCD8E16
:10600000828F83A3A3A3A3E0C0E07404122CE4D086
:10601000E0127ACDF87405122CE47401F0740612C3
:106020002CE47401F0901761F090176A0412774E17
:10603000FAA3E0FB901762125C44E890176BF01231
:106040007AF0E0901760F0AA18AB19123D44E960AD
:1060500003123D4A74070255398A088B09127A6681
:1060600035092274F212245574FF122AD2750800E1
:106070007E007F001243508A0A8B0B1261D5800587
:1060800005081261EBE84970F7901A04E0600764B4
:1060900001600302614B1261D580031261EBE84994
:1060A000602D888289831264ED901BB6E06A7003CC
:1060B000A3E06B600A1261F21264EDEA4B70DC88B7
:1060C0008289831261FCE0687003A3E069607C7AD6
:1060D000167B00127A496073901BB61261EE8A82B9
:1060E0008B83E812768E901BAB126D42F01244BE89
:1060F000E98E828F83A3A3A3A3A3F0901DE6E08E75
:10610000828F83A3A3A3A3A3A3F07CCA7D1BEE2449
:106110000B125F6EAA18AB1979411261E1E06008B9
:106120009017571261EE800478FE79FF8E828F837C
:10613000A3A3A3A3A3A3A3E8F0A3E912620BE50A18
:10614000F0A3E50BF08E0A8F0B050890176BE0F8B3
:10615000E508C398500479008029E508C398F9C37D
:106160009406400279057800800FE50A2414F58230
:10617000E4350B126203F50B0890176BE0FAE8C3E5
:106180009A40E77509007809122A30780A122A2CF9
:10619000E9F5097809122A3090176BE0F5097809BA
:1061A000122A30AD087C007A627B17901760E0F904
:1061B00012393074051229EE901A04E0600464016B
:1061C000700BEE4F6007EEFAEFFB1233D2123D4A2E
:1061D0007401027B221243508A0C8B0DA80CA90D6E
:1061E00022123B10851882851983221261F21276E1
:1061F0009B22E82414F582E439F5832212769B90E1
:106200001BB622F583E0F50AA3E022F0EE12773602
:106210002274F012245574FF122AD28A0A8B0B7E44
:10622000008E0E8E0F12633C350BF583126472FFE5
:10623000AC18AD197A007B00799D123DB0851882AB
:10624000851983E0F8EFC39840030262E6E0C39F3C
:10625000FEC3940B40027E0AEE75F007A4FAABF081
:106260001264568A0E8B0FEA4B6079750C00801A07
:10627000850882850983A3A3A3A3A37403F0E5087B
:106280002407F50850020509050CE50CC39E50567D
:10629000AC08AD09E50C2FFAE43400FB798B123D14
:1062A000B0850882850983A3A3A3A3A3E014600893
:1062B00014601314601F80B8850882850983A3A326
:1062C000A3A3A3E480B7850882850983A3A3A3A31E
:1062D000A3740180A8850882850983A3A3A3A3A32F
:1062E000740280997E007508007808122A30780EB2
:1062F000122A2CEEF5087808122A30EFF5087808F3
:10630000122A307405122CE4E0FD7C00E50A1264C8
:106310005E350BFBE50A126463350BF583E0F91279
:10632000393C74051229EEE50E450F6007AA0EAB45
:106330000F1233D274011229EE025423EA127A6743
:106340002274EE12245574FE122AD28A0C8B0D751B
:10635000100075110012633C350DF583126472F55F
:106360000AAC18AD197A007B0079A3124092851807
:10637000828519831261EEC3E50A98E4995020855D
:106380001882851983A80AE0C398FEA3E09400FF51
:10639000C3EE9404EF940040617E037F00805F7E33
:1063A00000750B00EEF97508007808122A30781095
:1063B000122A2CE9F5087808122A30E50AF508783F
:1063C00008122A307405122CE4E0FDAC0BE50C1227
:1063D000645E350DFBE50C126463350DF583E0F961
:1063E00012394274051229EEE51045116007AA1012
:1063F000AB111233D27402027B53EE4F60A3EEFA5C
:10640000EFFBEA75F015A4FAA8F075F015EBA428D7
:106410001264558A108B11EA4B6032750B00750EB1
:1064200000C3E50E9EE49F40030263A4AC08AD09DF
:10643000A80AE50E28FAE43400FB79A2124092E59E
:10644000082415F50850020509050E80D4750BB512
:1064500079000263A6FB1233CC8A088B092224023E
:10646000FAE42212646722240FF582E422125A7C95
:10647000A3A3125A7AE02274F612245574FF122A4A
:10648000D2EAFEEBFF12669F1264ED8A82F583A3C7
:10649000A3A3A3A3A3A3A3E0F9123D68E9851882EF
:1064A000851983F07508007808122A307401122AC1
:1064B0008C880889097808122A2C75083575098096
:1064C0007808122A2C1264D01229EE740102553970
:1064D00079011264DCFAE43F1265FA22EE2402FC30
:1064E000E43FFDEE240F2285188285198312747211
:1064F0002274F412245574FA122AD21260591266C8
:106500000DEEFAEFFB123C3CE9600F126601EEFA69
:10651000EFFB1234C8E964017013901A04E07003B1
:106520000265DE7401122CE4E4F0A3800974011208
:106530002CE4EEF0A3EFF0901A04E06402701785EB
:106540000882850983A3A3126ACBE0687003A3E0E5
:106550006960030265DE8E828F83A3A3A3A3A3A336
:10656000A3A3E0FEA2E650087403122CE47401F029
:10657000EEA2E750087404122CE47401F0740512C2
:106580002CE4E41268BCF0F50A780A122A3074018F
:10659000122A8C880A890B780A122A2C750A3475FB
:1065A0000B80780A122A2C1265E31229EE90815092
:1065B000122CB51244587A007B001244647A007B96
:1065C0000012445E7401122A94123D9EEEA2E7402E
:1065D0000D7401122CE41266B37003124A3474066F
:1065E0000254857901E5082402FCE43509FDE5083B
:1065F000240FFAE435091265FA22FB12389A740561
:10660000221244348A0A8B0BAC0AAD0B22F583129A
:1066100079D7FF2274F612245574FF122AD2EAFEAB
:10662000EBFF901A04E07011901DEBE0700B8A8272
:106630008B83A3A31266B3706312669F126472F514
:106640000874FF650870037508FEA908123D56E935
:10665000851882851983F012419AE96005A908120C
:106660003A08901A04E07005A908123A08EE240BC3
:10667000126AB870277508007808122A307401125F
:106680002A8C880889097808122A2C750836750919
:10669000807808122A2C1264D01229EE0264CBEA08
:1066A0001266A4222413F582E43FF58322F582E4E6
:1066B00038F58312769BE84922C082C083901A0481
:1066C000E07003123A0ED083D0820229D674F412FD
:1066D000245574EF122AD2EAFEEBFF12677DF5080B
:1066E000E439F509901757E06A7003A3E069705226
:1066F000A818A919880A890B780A122A2C750A1178
:10670000750B00780A122A2C7C007D007A817B00B0
:1067100012345674041229EEE97027750A00780ABB
:10672000122A307401122A8C880A890B780A122ADC
:106730002CAC08AD091267681238F474031229EE04
